:020000040800F2
:10000000C005002001010008210900080B010008BB
:100010001D090008310700087319000800000000DE
:10002000000000000000000000000000BD0A000801
:10003000350700080000000017010008190100083A
:100040001B0100081B0100081B0100081B01000820
:100050001B0100081B0100081B0100081B01000810
:100060001B0100081B0100081B0100081B01000800
:100070001B0100081B0100081B0100081B010008F0
:100080001B0100081B0100081B0100081B010008E0
:100090001B0100081B0100081B0100081B010008D0
:1000A0001B0100081B0100081B0100081B010008C0
:1000B0001B010008710E00081B0100081B0100084D
:1000C0001B0100081B0100081B0100081B010008A0
:1000D0001B010008511700081B0100081B01000844
:1000E0001B0100081B0100081B010008DFF80CD0F1
:1000F00000F0FCFA00480047491A0008C00500203B
:100100000648804706480047FEE7FEE7FEE7FEE7B1
:10011000FEE7FEE7FEE7FEE7FEE7FEE7D10B00089D
:10012000ED000008F0B480EA0102D40F4200B2EB07
:10013000410F02D20246084611464A0042D0C30D82
:10014000DDB2C1F3C752AD1A202D35DAC1F3160165
:1001500041F4000204B15242C5F1200602FA06F150
:100160002A411044B3EBD05F23D0C4B1012DA0EBE2
:10017000C35009DCF0BC4FF0004202EAC352DBB2CC
:1001800000F5000000F026BA400000F1807000EB9E
:10019000C350A0F1807040EAD170490009E04908DD
:1001A00041EAC071A0EBC35000F50000400800EB2D
:1001B000C350F0BC00F005BA6142012202EB4101DC
:1001C000001BF6E7F0BC704781F00041AAE780F021
:1001D0000040A7E780EA010210B502F000434000AA
:1001E00022D04A001FD0010E01EB1261C0F356006D
:1001F000C2F3560240F4000042F40002A0FB0220C9
:1002000000047F39140400D0401C50EA124001D48D
:100210004000491EC2B20C0604EBD010401C40083E
:10022000802A02D003E0002010BD20F00100002948
:1002300000DA0020184310BD30B480EA010202F059
:10024000004530F0004221F0004013D090B1C30DC2
:10025000D40DC2F31601C0F31600E41A41F40001F4
:1002600040F400027D34914201D3641C00E0490057
:10027000002C02DA30BC002070474FF4000000234D
:10028000914201D3891A034340084FEA4101F7D153
:1002900051B1914202D14FF0004105E002D24FF03E
:1002A000010101E06FF0010103EBC450284430BCB0
:1002B00000F087B92DE9FE4F804681EA0300C00FA8
:1002C0000C46009021F0004123F00045B8EB0200FD
:1002D000A94105D24046214690461C460B4602469F
:1002E00023F00040104347D0270DC7F30A00C3F3A3
:1002F0000A510290401A019040286BDAC3F31300B0
:1003000040F4801B0098924620B10023D2EB030AF0
:1003100063EB0B0B01985946C0F14002504600F0C8
:100320002FF906460D4650465946019A00F037F916
:1003300010EB08006141002487EA115284EAE77358
:100340001A4340D0009A62B3019A012A4FEA075239
:1003500015DC001B61EB02014FF0004202EA07527C
:10036000CDE90042001C41F5801132462B4600F0D9
:100370006EF903B0BDE8F08F40462146F9E7001B57
:1003800061EB0201001C41F5801300185B4120184D
:10039000A2F5001747EB030140EAD570B6196D418D
:1003A00011E06D084FEA360645EAC0754FEA07527C
:1003B000001B61EB0201001C41F5801149084FEA66
:1003C00030000019514132462B4603B0BDE8F04FD2
:1003D00000F02EB90098012240000023D0EB020269
:1003E00063EBE073009821464FEAE074B8EB00003D
:1003F00061EB0401E9E783F000435BE781F0004132
:1004000058E72DE9FE4F81EA030404F0004421F08F
:10041000004100944FF0000B23F0004350EA010428
:100420005ED052EA03045BD0C3F30A54C1F30A5509
:100430002C44A4F2F3340194A0FB0254C1F3130141
:1004400041F48011C3F3130343F4801301FB02440E
:1004500000FB034E840A970A44EA815447EA835713
:10046000A4FB076802958D0A05FB07854FEA932CCC
:1004700004FB0C542705029D4FEA065847EA16373D
:10048000B5EB08056EEB070C870E920E47EA811755
:1004900042EA8312A7FB0201B6EB0B0164EB0004F6
:1004A0002B0D43EA0C335E1844EB1C50DA465146E0
:1004B000E7FB0201C5F313044FEA0B3343EA14537D
:1004C0004FEA0432019C43EA0603A4F10C040294AF
:1004D000009CCDE900B400F0BAF803B0BDE8F08F9D
:1004E00000200146F9E720F00040C10DC0F31600DE
:1004F00040F400007F2901DA00207047962903DCD0
:10050000C1F19601C840704796398840704700F0A5
:10051000004230F000400AD0C10D01F56071C0F317
:10052000160042EA0151C2084007114370470020FB
:100530000146704701F0004330B421F0004150EA19
:10054000010206D00A0DA2F56072C1F31301002A60
:1005500002DC30BC00207047440F44EAC104C100F3
:10056000E01830BC00EBC25000F02BB8002801DBD3
:10057000C0F10040002901DBC1F100418842704711
:10058000202A04DB203A00FA02F100207047914053
:10059000C2F1200320FA03F3194390407047202A48
:1005A00006DBCB17203A41FA02F043EAE07306E09B
:1005B00041FA02F3D040C2F12002914008431946AB
:1005C00070470029A8BF7047401C490008BF20F0B1
:1005D0000100704710B4B0FA80FC00FA0CF050EA49
:1005E000010404BF10BC704749B1CCF1200421FACA
:1005F00004F411FA0CF118BF012121430843A3EBC5
:100600000C01CB1D4FEA00614FEA102042BF0020D1
:1006100010BC704700EBC35010440029A4BF10BCAD
:100620007047401C490008BF20F0010010BC704713
:1006300010B5141E73F1000408DA401C41F10001EA
:1006400092185B411A4301D120F0010010BD2DE941
:10065000F04D92469B4611B1B1FA81F202E0B0FA38
:1006600080F220329046FFF78BFF04460F4640EAA7
:100670000A0041EA0B0153465A46084313D011467B
:1006800053EA010019D0C8F14002504600F040F88A
:1006900005460E46504659464246FFF771FF08434D
:1006A00005D0012004E020463946BDE8F08D002049
:1006B000054346EAE0762C4337430A986305E40A8B
:1006C000A0EB08000022FD0A44EA47540A3002D594
:1006D00000200146E9E7010510196941DDE90845F7
:1006E00000196941BDE8F04DA2E70000064C074D36
:1006F00006E0E06840F0010394E8070098471034F2
:10070000AC42F6D3FFF7F6FC941F0008B41F0008B4
:10071000202A04DB203A21FA02F00021704721FA56
:1007200002F3D040C2F120029140084319467047BD
:1007300000BFFEE770472DE9F04102460025002684
:10074000002000230024002791F803C00CF00F05BF
:1007500091F803C00CF0100CBCF1000F03D091F81D
:1007600002C04CEA050591F800C0BCF1000F31D081
:10077000146800202BE04FF0010C0CFA00F3B1F8E4
:1007800000C00CEA03069E4220D183004FF00F0CFC
:100790000CFA03F7BC4305FA03FC4CEA040491F895
:1007A00003C0BCF1280F06D14FF0010C0CFA00FC7D
:1007B000C2F814C00AE091F803C0BCF1480F05D19B
:1007C0004FF0010C0CFA00FCC2F810C0401C0828C5
:1007D000D1D31460B1F800C0BCF1FF0F34DD546810
:1007E00000202EE000F1080C4FF0010808FA0CF38D
:1007F000B1F800C00CEA03069E4221D183004FF0FD
:100800000F0C0CFA03F7BC4305FA03FC4CEA040492
:1008100091F803C0BCF1280F05D100F1080C08FACB
:100820000CF8C2F8148091F803C0BCF1480F07D14E
:1008300000F1080C4FF0010808FA0CF8C2F810801B
:10084000401C0828CED35460BDE8F081F0B50A46BC
:10085000002300240021002500F00046B6F1004FDF
:1008600002D11D4EF16901E01B4E7168C0F30345D2
:1008700083B200F44016B6F5401F08D121F0706134
:10088000154E766826F07066134F7E6012E000F415
:100890008016B6F5801F06D1032606FA05F4A1439B
:1008A00041F0706106E0460D360103FA06F6B143E9
:1008B00041F0706122B1460D360103FA06F631436C
:1008C00000F00046B6F1004F02D1034EF16101E0A5
:1008D000014E7160F0BD00000000014041617047B1
:1008E0000161704708B50121082000F06DF84FF450
:1008F0008060ADF8000010208DF8030003208DF813
:10090000020069460448FFF716FF4FF48061024871
:10091000FFF7E4FF08BD0000000C014000BFFEE748
:100920007047000070B5002100230F22C47804B383
:10093000154C246804F4E064C4F5E064210AC1F1B4
:100940000403CA40447804FA03F184781440214334
:1009500009010E4C0678A155047804F01F05012406
:10096000AC4005786D11AD0005F1E025C5F80041FA
:1009700009E0047804F01F050124AC40044D06781A
:10098000761145F8264070BD0CED00E000E400E073
:1009900080E100E002490143024A11607047000013
:1009A0000000FA050CED00E029B1064AD2690243C5
:1009B000044BDA6104E0034AD2698243014BDA61F5
:1009C000704700000010024029B1064A92690243B4
:1009D000044B9A6104E0034A92698243014B9A6195
:1009E000704700000010024030B5002100220024B2
:1009F00000232D4D6D6805F00C0121B1042905D0AF
:100A0000082923D105E0294D056022E0274D056026
:100A10001FE0254D6D6805F47012234D6D6805F4D7
:100A20008034022505EB92421CB9214D55430560E7
:100A30000BE01D4D6D6805F400351DB11C4D55438F
:100A4000056002E0194D5543056002E0174D056051
:100A500000BF00BF144D6D6805F0F0010909154D88
:100A60006B5C0568DD4045600F4D6D6805F4E06125
:100A7000090A104D6B5C4568DD4085600A4D6D6864
:100A800005F46051C90A0B4D6B5C4568DD40C560DB
:100A9000054D6D6805F44041890B074D6B5CC568D9
:100AA000B5FBF3F5056130BD0010024000127A007D
:100AB00000093D001A0000202A000020704710B5F0
:100AC00000F002F810BD00000CB50020019000906D
:100AD0003348006840F480303149086000BF304836
:100AE000006800F4003000900198401C01900098CC
:100AF00018B90198B0F5A06FF1D12948006800F449
:100B0000003010B10120009001E00020009000981A
:100B1000012843D12348006840F0100021490860B3
:100B20000846006820F0030008600846006840F0AE
:100B3000020008601A484068194948600846406841
:100B400048600846406840F4806048600846406855
:100B500020F47C1048600846406840F4E810486083
:100B60000846006840F08070086000BF0C480068CC
:100B700000F000700028F9D00948406820F0030018
:100B8000074948600846406840F00200486000BFDE
:100B90000348406800F00C000828F9D10CBD0000A3
:100BA0000010024000200240042808D14FF0E0214C
:100BB000096941F004014FF0E022116107E04FF0B4
:100BC000E021096921F004014FF0E0221161704732
:100BD00010B51348006840F001001149086008464C
:100BE0004068104908400E494860084600680E49B0
:100BF00008400B4908600846006820F4802008601F
:100C00000846406820F4FE0048604FF41F008860EA
:100C1000FFF755FF4FF000600449086010BD000069
:100C2000001002400000FFF8FFFFF6FE08ED00E0B4
:100C3000F0B50C46154600220021068C4FF6FE77D3
:100C40003E400684028B018C4FF60C7632407E1CAF
:100C500006EA03162E433243104EB0420ED0104E19
:100C6000B0420BD0B0F1804F08D00E4EB04205D04C
:100C70000D4EB04202D00D4EB04206D14FF6FD7679
:100C8000314044F00106314305E04FF6F57631403E
:100C900044F00106314302830184F0BD002C014081
:100CA000003401400004004000080040000C0040F7
:100CB000F0B50C461546002200210026078C4FF6A1
:100CC000EF7C07EA0C070784028B018C4FF6FF7755
:100CD00007EA041640F6FF473A404FF6FF7707EA67
:100CE00003373A434FF6FF7707EA05273A43114F98
:100CF000B8420ED0104FB8420BD0B0F1804F08D0A0
:100D00000E4FB84205D00E4FB84202D00D4FB84238
:100D100006D14FF6DF77394046F01007394305E03A
:100D20004FF65F77394044F010073943028301845E
:100D3000F0BD0000002C01400034014000040040E0
:100D400000080040000C0040F0B50C46154600229B
:100D500000210026078C4FF6FF6C07EA0C0707847A
:100D6000828B018C4FF6FF7707EA04264FF60C774B
:100D70003A404FF6FF7707EA03172F433A43114FE4
:100D8000B8420ED0104FB8420BD0B0F1804F08D00F
:100D90000E4FB84205D00E4FB84202D00D4FB842A8
:100DA00006D14FF6FF57394046F48077394305E0C6
:100DB0004FF2FF57394044F48077394382830184EE
:100DC000F0BD0000002C0140003401400004004050
:100DD00000080040000C0040F0B50C46154600220B
:100DE00000210026078C4EF6FF7C07EA0C070784DB
:100DF000828B018C4FF6FF7707EA043640F6FF47F7
:100E00003A404FF6FF7707EA05273A434FF6FF7758
:100E100007EA03373A43114FB8420ED0104FB84299
:100E20000BD0B0F1804F08D00E4FB84205D00E4F16
:100E3000B84202D00D4FB84206D14DF6FF77394087
:100E400046F48057394305E047F6FF57394044F4EC
:100E50008057394382830184F0BD0000002C01409B
:100E6000003401400004004000080040000C004035
:100E700010B59D48007800F08000002844D1012181
:100E80009A4800F00FFAD0B19748007800F040007F
:100E9000A8B19548007800F03F003F280AD1924859
:100EA000007840F08000904908704FF6FF7090493C
:100EB000088004E08C480078401C8B4908700221AF
:100EC0008A4800F0EFF9F8B18748007800F0400058
:100ED00058B18548007840F0800083490870834805
:100EE00000F0DDF9824908800EE000207E4908709C
:100EF0007F49088000217D4800F0AAFB7A480078ED
:100F000040F04000784908707A48007800F080008E
:100F1000002844D10121754800F0C4F9D0B17548CA
:100F2000007800F04000A8B17248007800F03F005F
:100F30003F280AD16F48007840F080006D49087062
:100F40004FF6FF706C49088004E06A480078401C46
:100F5000684908700421654800F0A4F9F8B16548B3
:100F6000007800F0400058B16248007840F08000FE
:100F7000604908705D4800F092F95F4908800EE012
:100F800000205C4908705C4908800021574800F047
:100F90005FFB5848007840F04000564908705748B9
:100FA000007800F08000A0BB0121504800F07AF9E1
:100FB000D0B15248007800F04000A8B14F48007806
:100FC00000F03F003F280AD14C48007840F08000F4
:100FD0004A4908704FF6FF704949088004E04748C5
:100FE0000078401C454908700821404800F05AF933
:100FF00078B14248007800F0400058B13F4800788E
:1010000040F080003D490870384800F048F93C49FC
:1010100008800EE000203949087039490880002115
:10102000324800F015FB3548007840F04000334965
:1010300008703448007800F08000A0BB01212B48E4
:1010400000F030F9D0B12F48007800F04000A8B18E
:101050002C48007800F03F003F280AD1294800784A
:1010600040F08000274908704FF6FF70264908803D
:1010700004E024480078401C2249087010211B48D5
:1010800000F010F978B11F48007800F0400058B126
:101090001C48007840F080001A490870134800F09E
:1010A000FEF8194908800EE000201649087016491C
:1010B000088000210D4800F0CBFA1248007840F07B
:1010C0004000104908700321084800F0D9F80521B4
:1010D000064800F0D5F80921044800F0D1F81121A4
:1010E000024800F0CDF810BD0A00002000040040C6
:1010F0000C0000200E000020100000201200002034
:1011000014000020160000201800002030B587B021
:1011100005460C4601210220FFF746FC00F05CFC6E
:10112000ADF81450ADF810400020ADF81600ADF841
:10113000120004A92C4800F0B9FA0020ADF8040010
:101140000220ADF806000120ADF808000020ADF83F
:101150000A00ADF80C002548019901600299416030
:10116000BDF80C1001810420ADF804001F480A30BE
:101170000199016002994160BDF80C1001810820BD
:10118000ADF8040019480199416102998161BDF8E7
:101190000C1081830C20ADF8040014481E30019916
:1011A000016002994160BDF80C1001810F490E48A1
:1011B00000F08AF81D208DF8000002208DF8010053
:1011C00000208DF8020001208DF803006846FFF72B
:1011D000A9FB01221F21044800F0CCF8012102489C
:1011E00000F051F807B030BD000400402801002095
:1011F00030B587B005460C4601210420FFF7D4FB2B
:1012000000F064FCADF81450ADF810400020ADF8CB
:101210001600ADF8120004A9184800F047FA602043
:10122000ADF800000120ADF802000020ADF8080084
:101230006946124800F0A8F86946104800F0FAF82C
:1012400069460E4800F056F969460C4800F0ACF9C2
:1012500008210A4800F0E4F80821084800F03CF9A9
:101260000821064800F096F90821044800F0DAF950
:101270000121024800F007F807B030BD0008004027
:10128000CA430282704721B1028842F00102028003
:1012900004E002884FF6FE731A4002807047014650
:1012A000888E704730B50246002000230024158A3E
:1012B00005EA0103958905EA010413B10CB1012087
:1012C00000E0002030BD000070B505460C46244803
:1012D00085420ED0234885420BD0B5F1804F08D00F
:1012E0002148854205D02148854202D020488542C8
:1012F00000D100E000BF208850B92389A28861880E
:101300002846FFF795FCE188284600F0A3F925E080
:10131000208804280AD12389A28861882846FFF7FB
:10132000C7FCE188284600F09EF917E020880828CD
:101330000AD12389A28861882846FFF705FDE18844
:10134000284600F09DF909E02389A2886188284693
:10135000FFF742FDE188284600F09BF970BD0000D0
:10136000002C01400034014000040040000800400F
:10137000000C00401AB183890B43838102E083890A
:101380008B4383817047000070B500240022002346
:10139000058C4FF6FE7635400584028C8388048BDD
:1013A0004FF68F752C40B51E2C400D882C43751EB2
:1013B0002A400D892A434D882A43144DA8420BD058
:1013C000134DA84208D0134DA84205D0124DA84293
:1013D00002D0124DA84213D14FF6F7752A404D891D
:1013E0002A434FF6FB752A408D882A434FF6FF6546
:1013F0002B404FF6FF552B408D892B43CD892B4336
:1014000083800483CD888586028470BD002C0140D2
:1014100000340140004001400044014000480140C8
:101420000A460021018B4FF6F773194011430183DF
:101430007047000070B5002400220023058C4FF691
:10144000EF7635400584028C8388048B48F6FF755F
:101450002C404FF6FF452C400D884FF6FF7606EAEC
:1014600005252C434FF6DF752A400D8906EA051540
:101470002A434D8806EA05152A43154DA84202D095
:10148000144DA8421DD14FF67F752A404D894FF665
:10149000FF7606EA05152A434FF6BF752A408D8868
:1014A00006EA05152A434FF6FF352B404FF2FF752C
:1014B0002B408D8906EA85052B43CD8906EA8505F3
:1014C0002B4383800483CD880587028470BD000090
:1014D000002C0140003401400A460021018B4FF2EC
:1014E000FF7319404FF6FF7303EA02231943018388
:1014F0007047000070B5002400220023058C4FF6D1
:10150000FF6635400584028C8388848B4FF68F7587
:101510002C404FF6FC752C400D882C434FF6FF55A0
:101520002A400D894FF6FF7606EA05252A434D88A5
:1015300006EA05252A43154DA84202D0144DA842BB
:101540001DD14FF2FF752A404D894FF6FF7606EA0E
:1015500005252A434FF6FF352A408D8806EA0525E2
:101560002A434EF6FF752B404DF6FF752B408D89B3
:1015700006EA05152B43CD8906EA05152B43838022
:101580008483CD888587028470BD0000002C0140D3
:10159000003401400A460021818B4FF6F773194051
:1015A000114381837047000070B50022002300249E
:1015B000058C4EF6FF7635400584038C8488828B3B
:1015C00048F6FF752A404FF6FF452A400D884FF632
:1015D000FF7606EA05252A434DF6FF752B400D8957
:1015E00006EA05352B434D8806EA05352B430B4D9E
:1015F000A84202D00A4DA84208D14BF6FF752C40F4
:101600008D894FF6FF7606EA85152C438480828308
:10161000CD88A0F84050038470BD0000002C01402C
:10162000003401400A460021818B4FF2FF731940BC
:101630004FF6FF7303EA02231943818370478186C3
:1016400070470187704781877047A0F84010704746
:1016500081847047028B4FF6F3731A400283028B2A
:101660000A4302837047028B4FF2FF331A40028312
:10167000028B4FF6FF7303EA01231A43028370477C
:10168000828B4FF6F3731A408283828B0A438283E4
:101690007047828B4FF2FF331A408283828B4FF662
:1016A000FF7303EA01231A438283704700220288F2
:1016B0001D4B98420ED01D4B98420BD0B0F1804F7D
:1016C00008D01B4B984205D01A4B984202D01A4BB7
:1016D000984204D14FF68F731A404B881A43174B28
:1016E000984207D0164B984204D04FF6FF431A4059
:1016F000CB881A4302808B8883850B8803850A4B2D
:1017000098420BD0094B984208D00E4B984205D016
:101710000D4B984202D00D4B984201D10B7A0386B3
:101720000123838270470000002C014000340140F7
:101730000004004000080040000C00400010004081
:1017400000140040004001400044014000480140B6
:1017500010B540F225511D4800F04AF810B31B485F
:1017600000F002F9C4B21A48008800F40040C8B979
:101770001748008800F4804060B10A2C03D0002094
:101780001349088020E01248008840F400401049C6
:10179000088019E00D2C06D10D48008840F48040E7
:1017A0000B49088010E00A480088C0F30D00094981
:1017B0000C5407480088401C0549088008460088EA
:1017C000C72801DD0020088010BD0000003801405E
:1017D000080000206000002021B1828942F40052FC
:1017E000828104E082894DF6FF731A40828170473E
:1017F00070B50246002400230025002040F66A163A
:10180000B14200D100BFC1F3421501F01F03012610
:1018100006FA03F3012D02D19689334006E0022D2A
:1018200002D1168A334001E0968A33400C12012619
:1018300006FA04F41688344013B10CB1012000E01C
:10184000002070BDF0B503460024002600250020CE
:1018500040F66A17B94200D100BF1846C1F34214DE
:1018600001F01F06012707FA06F5012C01D10C3003
:1018700004E0022C01D1103000E014301AB10768E6
:101880002F43076002E00768AF430760F0BD000028
:101890002DE9F04786B005460E460024A24600BF5B
:1018A000A1460027B08900B100BF2F462C8A4CF614
:1018B000FF700440F08804432C82AC894EF6F3108C
:1018C0000440B08831890843718908430443AC81DE
:1018D000AC8A4FF6FF400440B0890443AC8201A8B3
:1018E000FFF782F81F48874202D1DDF810A001E01F
:1018F000DDF80CA0A88900F4004040B10AEBCA0052
:1019000000EB0A1031684900B0FBF1F807E00AEB80
:10191000CA0000EB0A1031688900B0FBF1F86420BE
:10192000B8FBF0F004012009642101FB1089A889AB
:1019300000F4004040B1322000EBC900B0FBF1F0F0
:1019400000F00700044308E0322000EB0910642196
:10195000B0FBF1F000F00F0004432C8106B0BDE8AD
:10196000F08700000038014001468888C0F3080075
:10197000704700BFFEE702E008C8121F08C1002A36
:10198000FAD170477047002001E001C1121F002A00
:10199000FBD1704710B56FF00400FFF705F90A4856
:1019A00000680A49B0FBF1F0094908700846007860
:1019B00000EB4001C1EBC0104FF6FF7101EAC0001F
:1019C0000449088010BD00003000002000127A0099
:1019D000000000200200002010B501210C20FEF7BD
:1019E000F3FF40201549088080208880012008816D
:1019F0000220888100200AE00421104A02EB8002C4
:101A0000D17003210D4A02EB80029170401C042822
:101A1000F2DB0A490A48FEF78EFE0849091D08480C
:101A2000FEF789FE054908310648FEF784FE0349A2
:101A30000C310448FEF77FFE10BD0000B00100200D
:101A4000000C014000080140FFF7A4FF4FF4A06024
:101A5000FEF7A0FFFEF746FF4FF4E13000F04AFA30
:101A600000F024F8012007490860002006490860BA
:101A700048600648886000F0BDF900F0D7F800BF64
:101A8000FEE70000A8812142540000200000A04091
:101A900010B520210448FEF723FF4FF400510248FF
:101AA000FEF71EFF10BD0000000C014010B54721DD
:101AB0004FF6FF70FFF72AFB41F61F414FF47A7093
:101AC000FFF796FBFFF7E4FF10BD000038B50121DA
:101AD0000D20FEF779FF01215048FEF7B7FE4020A8
:101AE0004F49888180214E4881844900818749007F
:101AF000A0F8541008210182890101858901A0F80C
:101B00004010C910A0F858101021818289018185E8
:101B10000901A0F84410C910A0F85C1000212DE0C4
:101B2000002028E098B9182301EB41023C4C04EB5B
:101B3000C2020C3202EB8002D370032301EB41029C
:101B400004EBC2020C3202EB8002937012E010230D
:101B500001EB4102324C04EBC2020C3202EB800278
:101B6000D370032301EB410204EBC2020C3202EBFF
:101B700080029370401C0328D4DB491C0429CFDB6E
:101B800028482749086048608860886126492448B9
:101B9000C16101622348224908630146204841632C
:101BA000816308461E49886401461D48C164016579
:101BB000002415E0002510E004EB4402184B03EB71
:101BC000C2020C3202EB850104EB440203EBC202B9
:101BD00052F82500FEF7AFFD6D1C032DECDB641CF5
:101BE000042CE7DB2020ADF8000010208DF8030066
:101BF00003208DF8020069460A48FEF79CFD4FF469
:101C00000050ADF8000010208DF8030003208DF87F
:101C1000020069460348FEF78EFD38BD0002300021
:101C200050010020000C01400008014070B54049FF
:101C300008680021FEF79AFC04D20121002000F080
:101C40007FF803E00021084600F07AF83849486838
:101C50000021FEF78BFC04D20121084600F070F849
:101C600003E00021012000F06BF831498868002171
:101C7000FEF77CFC04D20121022000F061F803E0B1
:101C80000021022000F05CF82949C8680021FEF715
:101C90006DFC04D20121032000F052F803E0002182
:101CA000032000F04DF8224801682248FEF792FA1E
:101CB00006462149FEF7C0FA0546FEF714FC84B239
:101CC00021461E48FFF7BBFC194841681948FEF73A
:101CD00081FA06461849FEF7AFFA0546FEF703FCFF
:101CE00084B221461548FFF7ACFC114881681148C1
:101CF000FEF770FA06461049FEF79EFA0546FEF713
:101D0000F2FB84B221460D48FFF79DFC0848C168EC
:101D10000848FEF75FFA06460749FEF78DFA0546C2
:101D2000FEF7E1FB84B221460448FFF78EFC70BD4C
:101D30004400002000007A4400008C42000800406B
:101D400070B504460D46012D1AD104EB4402284B10
:101D500003EBC202118A04EB440203EBC202506897
:101D6000FEF7BCFD04EB4402214B03EBC202918A57
:101D700004EB440203EBC2029068FEF7B1FD35E0CC
:101D8000D5B904EB44021A4B03EBC202118A04EBEF
:101D9000440203EBC2025068FEF7A2FD04EB4402CA
:101DA000134B03EBC202918A04EB440203EBC20221
:101DB0009068FEF793FD19E004EB44020C4B03EB33
:101DC000C202118A04EB440203EBC2025068FEF720
:101DD00085FD04EB4402064B03EBC202918A04EB3F
:101DE000440203EBC2029068FEF778FD70BD00006C
:101DF000500100202DE9F05F3A498868FEF787FB23
:101E00008046394A394BFEF7FCFA06460F46354AFA
:101E100051681068FEF7D8F98046FEF778FB8246D5
:101E200032463B46FEF7E7FA0446FEF783FB3049AD
:101E300008602C498868FEF76AFB80462A4A2B4BCB
:101E4000FEF7DFFA04460D46264A51681068FEF791
:101E500069F98046FEF75BFB064622462B46FEF7F5
:101E600029FA8246FEF766FB214948601D498868C9
:101E7000FEF74DFB82461C4A1C4BFEF7C2FA804619
:101E80008946184A51681068FEF79EF98246FEF7A7
:101E90003EFB064642464B46FEF70CFA0446FEF76A
:101EA00049FB134988600F498868FEF730FB0646F6
:101EB0000D4A0E4BFEF7A5FA04460D46094A516835
:101EC0001068FEF72FF90646FEF721FB80462246F2
:101ED0002B46FEF790FA8246FEF72CFB0449C860B9
:101EE000BDE8F09F5400002057EC2FBB270FC33FE5
:101EF0004400002010B586B00446012144F20400DD
:101F0000FEF762FD4FF40070ADF8140003208DF869
:101F1000160018208DF8170005A91C48FEF70BFCC9
:101F20004FF48060ADF8140004208DF8170005A967
:101F30001648FEF700FC25208DF8000003208DF8E0
:101F400001008DF8020001208DF803006846FEF7BD
:101F5000E9FC01940020ADF80800ADF80A00ADF8E6
:101F60000C00ADF810000C20ADF80E0001A90848D7
:101F7000FFF78EFC012240F225510548FFF762FC75
:101F800001210348FFF728FC06B010BD00080140FE
:101F900000380140B41F0008000000204400000089
:101FA00076190008F81F0008440000207C05000096
:101FB000861900080000000000000000000000007A
:101FC0000000000000000000000000000000000011
:101FD00000000102030401020304060708090204C9
:101FE0000608000000A24A040000000000000000F3
:081FF0000102030406070809C1
:04000005080000ED02
:00000001FF
