:020000040800F2
:10000000D804002001010008530100080B0100087A
:100010004F010008490100086B04000800000000BF
:100020000000000000000000000000005501000872
:100030004D01000800000000170100081901000828
:100040001B0100081B0100081B0100081B01000820
:100050001B0100081B0100081B0100081B01000810
:100060001B0100081B0100081B0100081B01000800
:100070001B0100081B0100081B0100081B010008F0
:100080001B0100081B0100081B0100081B010008E0
:100090001B0100081B0100081B0100081B010008D0
:1000A0001B0100081B0100081B0100081B010008C0
:1000B0001B010008A10200081B0100081B01000829
:1000C0001B0100081B0100081B0100081B010008A0
:1000D0001B010008850300081B0100081B01000824
:1000E0001B0100081B0100081B010008DFF80CD0F1
:1000F00000F018F8004800478D040008D8040020DC
:100100000648804706480047FEE7FEE7FEE7FEE7B1
:10011000FEE7FEE7FEE7FEE7FEE7FEE74102000836
:10012000ED000008064C074D06E0E06840F00103D2
:1001300094E8070098471034AC42F6D3FFF7DAFF93
:1001400090040008B004000800BFFEE7704700BF3D
:10015000FEE77047704710B500F002F810BD0000D0
:100160000CB50020019000903348006840F48030C6
:100170003149086000BF3048006800F4003000904A
:100180000198401C0190009818B90198B0F5A06F33
:10019000F1D12948006800F4003010B1012000902E
:1001A00001E0002000900098012843D12348006816
:1001B00040F01000214908600846006820F0030064
:1001C00008600846006840F0020008601A4840686D
:1001D000194948600846406848600846406840F44D
:1001E000806048600846406820F47C1048600846FB
:1001F000406840F4E81048600846006840F08070AD
:10020000086000BF0C48006800F000700028F9D0BA
:100210000948406820F003000749486008464068E4
:1002200040F00200486000BF0348406800F00C0046
:100230000828F9D10CBD0000001002400020024047
:1002400010B51348006840F00100114908600846E5
:100250004068104908400E494860084600680E4949
:1002600008400B4908600846006820F480200860B8
:100270000846406820F4FE0048604FF41F00886084
:10028000FFF769FF4FF000600449086010BD0000EF
:10029000001002400000FFF8FFFFF6FE08ED00E04E
:1002A00010B52848007800F08000002844D10121D2
:1002B000254800F053F8D0B12248007800F0400003
:1002C000A8B12048007800F03F003F280AD11D481F
:1002D000007840F080001B4908704FF6FF701B4902
:1002E000088004E017480078401C16490870022175
:1002F000154800F033F8F8B11248007800F04000DB
:1003000058B11048007840F080000E4908700E483F
:1003100000F021F80D4908800EE00020094908701E
:100320000A4908800021084800F029F805480078AB
:1003300040F04000034908700321034800F008F82A
:1003400010BD00000600002000040040080000204E
:10035000CA43028270470146888E704730B5024614
:10036000002000230024158A05EA0103958905EA87
:10037000010413B10CB1012000E0002030BD8184E4
:100380007047000010B540F225511D4800F03EF8BE
:1003900010B31B4800F064F8C4B21A48008800F497
:1003A0000040C8B91748008800F4804060B10A2CAA
:1003B00003D000201349088020E01248008840F450
:1003C00000401049088019E00D2C06D10D48008826
:1003D00040F480400B49088010E00A480088C0F3D0
:1003E0000D0009490C5407480088401C0549088045
:1003F00008460088C72801DD0020088010BD0000E5
:1004000000380140040000200C00002070B50246B6
:10041000002400230025002040F66A16B14200D1D6
:1004200000BFC1F3421501F01F03012606FA03F3D2
:10043000012D02D19689334006E0022D02D1168AA1
:10044000334001E0968A33400C12012606FA04F488
:100450001688344013B10CB1012000E0002070BDBB
:1004600001468888C0F30800704700BFFEE702E03D
:1004700008C8121F08C1002AFAD17047704700202F
:1004800001E001C1121F002AFBD170470020704714
:10049000B0040008000000200C0000006E040008FA
:1004A000BC0400080C000020CC0400007E040008FE
:0C04B00000000000000000000000000040
:04000005080000ED02
:00000001FF
