:020000040800F2
:10000000B805002001010008750500080B01000873
:100010007105000885030008DB13000800000000DC
:1000200000000000000000000000000011070008B0
:1000300089030008000000001701000819010008EA
:100040001B0100081B0100081B0100081B01000820
:100050001B0100081B0100081B0100081B01000810
:100060001B0100081B0100081B0100081B01000800
:100070001B0100081B0100081B0100081B010008F0
:100080001B0100081B0100081B0100081B010008E0
:100090001B0100081B0100081B0100081B010008D0
:1000A0001B0100081B0100081B0100081B010008C0
:1000B0001B010008C50A00081B0100081B010008FD
:1000C0001B0100081B0100081B0100081B010008A0
:1000D0001B010008B91100081B0100081B010008E2
:1000E0001B0100081B0100081B010008DFF80CD0F1
:1000F00000F036F900480047B1140008B8050020A8
:100100000648804706480047FEE7FEE7FEE7FEE7B1
:10011000FEE7FEE7FEE7FEE7FEE7FEE7250800084C
:10012000ED000008F0B480EA0102D40F4200B2EB07
:10013000410F02D20246084611464A0042D0C30D82
:10014000DDB2C1F3C752AD1A202D35DAC1F3160165
:1001500041F4000204B15242C5F1200602FA06F150
:100160002A411044B3EBD05F23D0C4B1012DA0EBE2
:10017000C35009DCF0BC4FF0004202EAC352DBB2CC
:1001800000F5000000F0BDB8400000F1807000EB09
:10019000C350A0F1807040EAD170490009E04908DD
:1001A00041EAC071A0EBC35000F50000400800EB2D
:1001B000C350F0BC00F09CB86142012202EB410147
:1001C000001BF6E7F0BC704781F00041AAE780F021
:1001D0000040A7E780EA010210B502F000434000AA
:1001E00022D04A001FD0010E01EB1261C0F356006D
:1001F000C2F3560240F4000042F40002A0FB0220C9
:1002000000047F39140400D0401C50EA124001D48D
:100210004000491EC2B20C0604EBD010401C40083E
:10022000802A02D003E0002010BD20F00100002948
:1002300000DA0020184310BD30B480EA010202F059
:10024000004530F0004221F0004013D090B1C30DC2
:10025000D40DC2F31601C0F31600E41A41F40001F4
:1002600040F400027D34914201D3641C00E0490057
:10027000002C02DA30BC002070474FF4000000234D
:10028000914201D3891A034340084FEA4101F7D153
:1002900051B1914202D14FF0004105E002D24FF03E
:1002A000010101E06FF0010103EBC450284430BCB0
:1002B00000F01EB820F00040C10DC0F3160040F45D
:1002C00000007F2901DA00207047962903DCC1F184
:1002D0009601C8407047963988407047002801DB76
:1002E000C0F10040002901DBC1F1004188427047A4
:1002F0000029A8BF7047401C490008BF20F001003A
:10030000704710B4B0FA80FC00FA0CF050EA010417
:1003100004BF10BC704749B1CCF1200421FA04F4A9
:1003200011FA0CF118BF012121430843A3EB0C0182
:10033000CB1D4FEA00614FEA102042BF002010BCE5
:10034000704700EBC35010440029A4BF10BC704795
:10035000401C490008BF20F0010010BC704700009D
:10036000064C074D06E0E06840F0010394E8070002
:1003700098471034AC42F6D3FFF7BCFE8019000852
:10038000A019000800BFFEE770472DE9F0410246C2
:1003900000250026002000230024002791F803C038
:1003A0000CF00F0591F803C00CF0100CBCF1000F1D
:1003B00003D091F802C04CEA050591F800C0BCF1E9
:1003C000000F31D0146800202BE04FF0010C0CFA24
:1003D00000F3B1F800C00CEA03069E4220D183006E
:1003E0004FF00F0C0CFA03F7BC4305FA03FC4CEA80
:1003F000040491F803C0BCF1280F06D14FF0010CA2
:100400000CFA00FCC2F814C00AE091F803C0BCF179
:10041000480F05D14FF0010C0CFA00FCC2F810C0D7
:10042000401C0828D1D31460B1F800C0BCF1FF0F04
:1004300034DD546800202EE000F1080C4FF0010874
:1004400008FA0CF3B1F800C00CEA03069E4221D171
:1004500083004FF00F0C0CFA03F7BC4305FA03FCC2
:100460004CEA040491F803C0BCF1280F05D100F157
:10047000080C08FA0CF8C2F8148091F803C0BCF11B
:10048000480F07D100F1080C4FF0010808FA0CF8EA
:10049000C2F81080401C0828CED35460BDE8F0811B
:1004A000F0B50A46002300240021002500F0004694
:1004B000B6F1004F02D11D4EF16901E01B4E71688B
:1004C000C0F3034583B200F44016B6F5401F08D1CF
:1004D00021F07061154E766826F07066134F7E60CD
:1004E00012E000F48016B6F5801F06D1032606FA46
:1004F00005F4A14341F0706106E0460D360103FAB0
:1005000006F6B14341F0706122B1460D360103FA9F
:1005100006F6314300F00046B6F1004F02D1034E1B
:10052000F16101E0014E7160F0BD0000000001408A
:10053000416170470161704708B50121082000F052
:100540006DF84FF48060ADF8000010208DF80300C6
:1005500003208DF8020069460448FFF716FF4FF4A8
:1005600080610248FFF7E4FF08BD0000000C014075
:1005700000BFFEE77047000070B5002100230F2286
:10058000C47804B3154C246804F4E064C4F5E06452
:10059000210AC1F10403CA40447804FA03F18478C3
:1005A0001440214309010E4C0678A155047804F04B
:1005B0001F050124AC4005786D11AD0005F1E02563
:1005C000C5F8004109E0047804F01F050124AC409F
:1005D000044D0678761145F8264070BD0CED00E01C
:1005E00000E400E080E100E002490143024A1160BA
:1005F000704700000000FA050CED00E029B1064A42
:10060000D2690243044BDA6104E0034AD2698243AF
:10061000014BDA61704700000010024029B1064A20
:1006200092690243044B9A6104E0034A926982434F
:10063000014B9A61704700000010024030B5002164
:100640000022002400232D4D6D6805F00C0121B11E
:10065000042905D0082923D105E0294D056022E0B1
:10066000274D05601FE0254D6D6805F47012234D80
:100670006D6805F48034022505EB92421CB9214DCA
:10068000554305600BE01D4D6D6805F400351DB147
:100690001C4D5543056002E0194D5543056002E0CD
:1006A000174D056000BF00BF144D6D6805F0F001E7
:1006B0000909154D6B5C0568DD4045600F4D6D689F
:1006C00005F4E061090A104D6B5C4568DD4085600A
:1006D0000A4D6D6805F46051C90A0B4D6B5C4568A5
:1006E000DD40C560054D6D6805F44041890B074D3F
:1006F0006B5CC568B5FBF3F5056130BD00100240C9
:1007000000127A0000093D000E0000201E000020AB
:10071000704710B500F002F810BD00000CB50020C5
:10072000019000903348006840F4803031490860FF
:1007300000BF3048006800F4003000900198401C71
:100740000190009818B90198B0F5A06FF1D129482F
:10075000006800F4003010B10120009001E000209A
:1007600000900098012843D12348006840F0100011
:10077000214908600846006820F003000860084628
:10078000006840F0020008601A4840681949486053
:100790000846406848600846406840F48060486009
:1007A0000846406820F47C1048600846406840F4E1
:1007B000E81048600846006840F08070086000BF9C
:1007C0000C48006800F000700028F9D00948406823
:1007D00020F00300074948600846406840F00200E6
:1007E000486000BF0348406800F00C000828F9D1B9
:1007F0000CBD00000010024000200240042808D177
:100800004FF0E021096941F004014FF0E02211614D
:1008100007E04FF0E021096921F004014FF0E022E8
:100820001161704710B51348006840F0010011498C
:10083000086008464068104908400E49486008466C
:1008400000680E4908400B4908600846006820F41B
:10085000802008600846406820F4FE0048604FF49D
:100860001F008860FFF755FF4FF0006004490860E3
:1008700010BD0000001002400000FFF8FFFFF6FE70
:1008800008ED00E0F0B50C46154600220021068C6C
:100890004FF6FE773E400684028B018C4FF60C76B5
:1008A00032407E1C06EA03162E433243104EB042FD
:1008B0000ED0104EB0420BD0B0F1804F08D00E4E8B
:1008C000B04205D00D4EB04202D00D4EB04206D11E
:1008D0004FF6FD76314044F00106314305E04FF616
:1008E000F576314044F00106314302830184F0BDC6
:1008F000002C01400034014000040040000800408A
:10090000000C0040F0B50C461546002200210026E0
:10091000078C4FF6EF7C07EA0C070784028B018CEB
:100920004FF6FF7707EA041640F6FF473A404FF6C6
:10093000FF7707EA03373A434FF6FF7707EA0527C1
:100940003A43114FB8420ED0104FB8420BD0B0F11D
:10095000804F08D00E4FB84205D00E4FB84202D09B
:100960000D4FB84206D14FF6DF77394046F01007F9
:10097000394305E04FF65F77394044F010073943BB
:1009800002830184F0BD0000002C014000340140CE
:100990000004004000080040000C0040F0B50C4688
:1009A0001546002200210026078C4FF6FF6C07EA4F
:1009B0000C070784828B018C4FF6FF7707EA042629
:1009C0004FF60C773A404FF6FF7707EA03172F43AD
:1009D0003A43114FB8420ED0104FB8420BD0B0F18D
:1009E000804F08D00E4FB84205D00E4FB84202D00B
:1009F0000D4FB84206D14FF6FF57394046F4807785
:100A0000394305E04FF2FF57394044F480773943CA
:100A100082830184F0BD0000002C014000340140BD
:100A20000004004000080040000C0040F0B50C46F7
:100A30001546002200210026078C4EF6FF7C07EAAF
:100A40000C070784828B018C4FF6FF7707EA043688
:100A500040F6FF473A404FF6FF7707EA05273A434B
:100A60004FF6FF7707EA03373A43114FB8420ED0EB
:100A7000104FB8420BD0B0F1804F08D00E4FB842A3
:100A800005D00E4FB84202D00D4FB84206D14DF6F8
:100A9000FF77394046F48057394305E047F6FF5762
:100AA000394044F48057394382830184F0BD00000B
:100AB000002C0140003401400004004000080040C8
:100AC000000C004010B52848007800F08000002895
:100AD00044D10121254800F019F9D0B1224800780D
:100AE00000F04000A8B12048007800F03F003F2807
:100AF0000AD11D48007840F080001B4908704FF66D
:100B0000FF701B49088004E017480078401C164914
:100B100008700221154800F0F9F8F8B11248007881
:100B200000F0400058B11048007840F080000E49B5
:100B300008700E4800F0E7F80D4908800EE000202C
:100B4000094908700A4908800021084800F0B4FAF1
:100B50000548007840F0400003490870032103482D
:100B600000F0C2F810BD00000A00002000040040A0
:100B70000C00002030B587B005460C46012102204C
:100B8000FFF73CFD00F05CFCADF81450ADF81040F0
:100B90000020ADF81600ADF8120004A92C4800F0B2
:100BA000B9FA0020ADF804000220ADF806000120DB
:100BB000ADF808000020ADF80A00ADF80C0025489B
:100BC0000199016002994160BDF80C100181042077
:100BD000ADF804001F480A30019901600299416094
:100BE000BDF80C1001810820ADF8040019480199E6
:100BF000416102998161BDF80C1081830C20ADF830
:100C0000040014481E300199016002994160BDF84A
:100C10000C1001810F490E4800F08AF81D208DF854
:100C2000000002208DF8010000208DF80200012054
:100C30008DF803006846FFF79FFC01221F2104483E
:100C400000F0CCF80121024800F051F807B030BDA7
:100C5000000400401C01002030B587B005460C465A
:100C600001210420FFF7CAFC00F05AFCADF8145033
:100C7000ADF810400020ADF81600ADF8120004A940
:100C8000184800F047FA6020ADF800000120ADF8E8
:100C900002000020ADF808006946124800F0A8F8EC
:100CA0006946104800F0FAF869460E4800F056F917
:100CB00069460C4800F0ACF908210A4800F0E4F855
:100CC0000821084800F03CF90821064800F096F990
:100CD0000821044800F0DAF90121024800F007F881
:100CE00007B030BD00080040CA430282704721B1FE
:100CF000028842F00102028004E002884FF6FE738F
:100D00001A40028070470146888E704730B502460F
:100D1000002000230024158A05EA0103958905EACD
:100D2000010413B10CB1012000E0002030BD00002F
:100D300070B505460C46244885420ED023488542AE
:100D40000BD0B5F1804F08D02148854205D021480D
:100D5000854202D02048854200D100E000BF2088B3
:100D600050B92389A28861882846FFF78BFDE18866
:100D7000284600F0A3F925E0208804280AD1238919
:100D8000A28861882846FFF7BDFDE188284600F06B
:100D90009EF917E0208808280AD12389A288618853
:100DA0002846FFF7FBFDE188284600F09DF909E0A1
:100DB0002389A28861882846FFF738FEE188284603
:100DC00000F09BF970BD0000002C01400034014090
:100DD0000004004000080040000C00401AB1838964
:100DE0000B43838102E083898B438381704700003A
:100DF00070B5002400220023058C4FF6FE763540A6
:100E00000584028C8388048B4FF68F752C40B51EA9
:100E10002C400D882C43751E2A400D892A434D888D
:100E20002A43144DA8420BD0134DA84208D0134DAD
:100E3000A84205D0124DA84202D0124DA84213D1AB
:100E40004FF6F7752A404D892A434FF6FB752A4025
:100E50008D882A434FF6FF652B404FF6FF552B40F8
:100E60008D892B43CD892B4383800483CD88858650
:100E7000028470BD002C014000340140004001405C
:100E800000440140004801400A460021018B4FF612
:100E9000F7731940114301837047000070B50024B7
:100EA00000220023058C4FF6EF7635400584028C36
:100EB0008388048B48F6FF752C404FF6FF452C4085
:100EC0000D884FF6FF7606EA05252C434FF6DF75B1
:100ED0002A400D8906EA05152A434D8806EA0515BC
:100EE0002A43154DA84202D0144DA8421DD14FF6F9
:100EF0007F752A404D894FF6FF7606EA05152A438D
:100F00004FF6BF752A408D8806EA05152A434FF62D
:100F1000FF352B404FF2FF752B408D8906EA850582
:100F20002B43CD8906EA85052B4383800483CD8836
:100F30000587028470BD0000002C01400034014090
:100F40000A460021018B4FF2FF7319404FF6FF73E1
:100F500003EA0223194301837047000070B500249F
:100F600000220023058C4FF6FF6635400584028C75
:100F70008388848B4FF68F752C404FF6FC752C4080
:100F80000D882C434FF6FF552A400D894FF6FF760A
:100F900006EA05252A434D8806EA05252A43154D0C
:100FA000A84202D0144DA8421DD14FF2FF752A402D
:100FB0004D894FF6FF7606EA05252A434FF6FF35A1
:100FC0002A408D8806EA05252A434EF6FF752B40F8
:100FD0004DF6FF752B408D8906EA05152B43CD890B
:100FE00006EA05152B4383808483CD888587028498
:100FF00070BD0000002C0140003401400A46002171
:10100000818B4FF6F77319401143818370470000BD
:1010100070B5002200230024058C4EF6FF76354083
:101020000584038C8488828B48F6FF752A404FF62E
:10103000FF452A400D884FF6FF7606EA05252A432C
:101040004DF6FF752B400D8906EA05352B434D887B
:1010500006EA05352B430B4DA84202D00A4DA842A3
:1010600008D14BF6FF752C408D894FF6FF7606EAC6
:1010700085152C4384808283CD88A0F8405003845A
:1010800070BD0000002C0140003401400A460021E0
:10109000818B4FF2FF7319404FF6FF7303EA02236F
:1010A0001943818370478186704701877047818724
:1010B0007047A0F84010704781847047028B4FF64C
:1010C000F3731A400283028B0A4302837047028B38
:1010D0004FF2FF331A400283028B4FF6FF7303EA8D
:1010E00001231A4302837047828B4FF6F3731A4031
:1010F0008283828B0A4382837047828B4FF2FF3355
:101100001A408283828B4FF6FF7303EA01231A434E
:1011100082837047002202881D4B98420ED01D4BDF
:1011200098420BD0B0F1804F08D01B4B984205D0AD
:101130001A4B984202D01A4B984204D14FF68F7343
:101140001A404B881A43174B984207D0164B9842C7
:1011500004D04FF6FF431A40CB881A4302808B8895
:1011600083850B8803850A4B98420BD0094B984224
:1011700008D00E4B984205D00D4B984202D00D4B33
:10118000984201D10B7A03860123838270470000C5
:10119000002C0140003401400004004000080040E1
:1011A000000C0040001000400014004000400140CE
:1011B000004401400048014010B540F225511D484F
:1011C00000F04AF810B31B4800F002F9C4B21A4804
:1011D000008800F40040C8B91748008800F4804037
:1011E00060B10A2C03D000201349088020E0124887
:1011F000008840F400401049088019E00D2C06D109
:101200000D48008840F480400B49088010E00A48EF
:101210000088C0F30D0009490C5407480088401CA1
:101220000549088008460088C72801DD002008809D
:1012300010BD0000003801400800002054000020CC
:1012400021B1828942F40052828104E082894DF604
:10125000FF731A408281704770B502460024002354
:101260000025002040F66A16B14200D100BFC1F34C
:10127000421501F01F03012606FA03F3012D02D1E6
:101280009689334006E0022D02D1168A334001E0F0
:10129000968A33400C12012606FA04F4168834406C
:1012A00013B10CB1012000E0002070BDF0B5034681
:1012B000002400260025002040F66A17B94200D11C
:1012C00000BF1846C1F3421401F01F06012707FAB8
:1012D00006F5012C01D10C3004E0022C01D11030B4
:1012E00000E014301AB107682F43076002E0076876
:1012F000AF430760F0BD00002DE9F04786B005461A
:101300000E460024A24600BFA1460027B08900B1C6
:1013100000BF2F462C8A4CF6FF700440F08804432F
:101320002C82AC894EF6F3100440B0883189084312
:10133000718908430443AC81AC8A4FF6FF400440F6
:10134000B0890443AC8201A8FFF778F91F488742AF
:1013500002D1DDF810A001E0DDF80CA0A88900F4AE
:10136000004040B10AEBCA0000EB0A1031684900A6
:10137000B0FBF1F807E00AEBCA0000EB0A10316895
:101380008900B0FBF1F86420B8FBF0F004012009FB
:10139000642101FB1089A88900F4004040B132208B
:1013A00000EBC900B0FBF1F000F00700044308E0D7
:1013B000322000EB09106421B0FBF1F000F00F00C7
:1013C00004432C8106B0BDE8F087000000380140DE
:1013D00001468888C0F30800704700BFFEE702E0BE
:1013E00008C8121F08C1002AFAD1704770470020B0
:1013F00001E001C1121F002AFBD1704710B56FF048
:101400000400FFF7FBF90A4800680A49B0FBF1F055
:10141000094908700846007800EB4001C1EBC01094
:101420004FF6FF7101EAC0000449088010BD0000BA
:101430002400002000127A0000000020020000209A
:1014400010B501210C20FFF7E9F84020154908806C
:1014500080208880012008810220888100200AE005
:101460000421104A02EB8002D17003210D4A02EBE5
:1014700080029170401C0428F2DB0A490A48FEF7FA
:1014800084FF0849091D0848FEF77FFF0549083118
:101490000648FEF77AFF03490C310448FEF775FF52
:1014A00010BD0000A4010020000C01400008014014
:1014B00010B5FFF7A3FF4FF4A060FFF795F8FFF713
:1014C0003BF84FF4E13000F00BFA00F01BF809484C
:1014D00009490860094848600648886000F0B4F986
:1014E00000F0CEF84FF480610548FFF723F80020A4
:1014F00010BD0000CDCCCC3D480000203333333F3D
:10150000000C014010B541F61F4142F21070FFF788
:1015100031FB41F61F4142F21070FFF79DFB10BDF9
:1015200038B501210D20FFF779F801215048FEF769
:10153000B7FF40204F49888180214E48818449006F
:1015400081874900A0F85410082101828901018592
:101550008901A0F84010C910A0F85810102181820C
:10156000890181850901A0F84410C910A0F85C1018
:1015700000212DE0002028E098B9182301EB41025A
:101580003C4C04EBC2020C3202EB8002D37003230A
:1015900001EB410204EBC2020C3202EB80029370B9
:1015A00012E0102301EB4102324C04EBC2020C3278
:1015B00002EB8002D370032301EB410204EBC20271
:1015C0000C3202EB80029370401C0328D4DB491CD0
:1015D0000429CFDB28482749086048608860886173
:1015E00026492448C1610162234822490863014613
:1015F00020484163816308461E49886401461D48AE
:10160000C1640165002415E0002510E004EB4402EC
:10161000184B03EBC2020C3202EB850104EB4402CF
:1016200003EBC20252F82500FEF7AFFE6D1C032D3E
:10163000ECDB641C042CE7DB2020ADF8000010205C
:101640008DF8030003208DF8020069460A48FEF772
:101650009CFE4FF40050ADF8000010208DF8030000
:1016600003208DF8020069460348FEF78EFE38BD60
:101670000002300044010020000C0140000801403D
:1016800070B5404908680021FEF728FE04D2012108
:10169000002000F07FF803E00021084600F07AF80F
:1016A000384948680021FEF719FE04D20121084696
:1016B00000F070F803E00021012000F06BF83149E0
:1016C00088680021FEF70AFE04D20121022000F002
:1016D00061F803E00021022000F05CF82949C868A5
:1016E0000021FEF7FBFD04D20121032000F052F897
:1016F00003E00021032000F04DF822480168224851
:10170000FEF768FD06462149FEF796FD0546FEF701
:10171000D1FD84B221461E48FFF7C5FC1948416837
:101720001948FEF757FD06461849FEF785FD0546A0
:10173000FEF7C0FD84B221461548FFF7B6FC1148FC
:1017400081681148FEF746FD06461049FEF774FD14
:101750000546FEF7AFFD84B221460D48FFF7A7FC12
:101760000848C1680848FEF735FD06460749FEF7F8
:1017700063FD0546FEF79EFD84B221460448FFF74F
:1017800098FC70BD3800002000401C4600008C42D0
:101790000008004070B504460D46012D1AD104EB37
:1017A0004402284B03EBC202118A04EB440203EB10
:1017B000C2025068FEF7BCFE04EB4402214B03EB6F
:1017C000C202918A04EB440203EBC2029068FEF766
:1017D000B1FE35E0D5B904EB44021A4B03EBC2026B
:1017E000118A04EB440203EBC2025068FEF7A2FE2A
:1017F00004EB4402134B03EBC202918A04EB440254
:1018000003EBC2029068FEF793FE19E004EB44027A
:101810000C4B03EBC202118A04EB440203EBC2023D
:101820005068FEF785FE04EB4402064B03EBC20250
:10183000918A04EB440203EBC2029068FEF778FE43
:1018400070BD00004401002070B52249886822491B
:10185000FEF7C0FC04461F4A51681068FEF7B4FC4E
:1018600005462146FEF7B0FC1C4908601949886806
:101870001949FEF7AFFC0446164A51681068FEF796
:1018800051FC05462146FEF74DFC144948601149BC
:1018900088681149FEF79EFC04460E4A516810689C
:1018A000FEF792FC05462146FEF73CFC0B4988609A
:1018B000084988680849FEF78DFC0446054A5168C6
:1018C0001068FEF72FFC05462146FEF77DFC034914
:1018D000C86070BD480000200000FA4338000020B6
:1018E00010B586B00446012144F20400FEF796FECE
:1018F0004FF40070ADF8140003208DF81600182086
:101900008DF8170005A91C48FEF73FFD4FF48060D5
:10191000ADF8140004208DF8170005A91648FEF74D
:1019200034FD25208DF8000003208DF801008DF88E
:10193000020001208DF803006846FEF71DFE0194A9
:101940000020ADF80800ADF80A00ADF80C00ADF8C5
:1019500010000C20ADF80E0001A90848FFF7CCFCE0
:10196000012240F225510548FFF7A0FC0121034860
:10197000FFF766FC06B010BD0008014000380140CA
:10198000A01900080000002038000000DE13000845
:10199000D81900083800002080050000EE13000868
:1019A0000000000000000000000000000000000037
:1019B00000000102030401020304060708090204EF
:1019C0000608000000A24A04000000000000000019
:0819D0000102030406070809E7
:04000005080000ED02
:00000001FF
