:020000040800F2
:1000000030050020010100084D0900080B0100081F
:10001000490900085D070008B71A00080000000041
:10002000000000000000000000000000E90A0008D5
:10003000610700080000000017010008190100080E
:100040001B0100081B0100081B0100081B01000820
:100050001B0100081B0100081B0100081B01000810
:100060001B0100081B0100081B0100081B01000800
:100070001B0100081B0100081B0100081B010008F0
:100080001B0100081B0100081B0100081B010008E0
:100090001B0100081B0100081B0100081B010008D0
:1000A0001B0100081B0100081B0100081B010008C0
:1000B0001B0100089D0E00081B0100081B01000821
:1000C0001B0100081B0100081B0100081B010008A0
:1000D0001B010008E5170008811800081B01000833
:1000E0001B0100081B0100081B010008DFF80CD0F1
:1000F00000F012FB004800476D1D0008300500208D
:100100000648804706480047FEE7FEE7FEE7FEE7B1
:10011000FEE7FEE7FEE7FEE7FEE7FEE7FD0B000871
:10012000ED000008F0B480EA0102D40F4200B2EB07
:10013000410F02D20246084611464A0042D0C30D82
:10014000DDB2C1F3C752AD1A202D35DAC1F3160165
:1001500041F4000204B15242C5F1200602FA06F150
:100160002A411044B3EBD05F23D0C4B1012DA0EBE2
:10017000C35009DCF0BC4FF0004202EAC352DBB2CC
:1001800000F5000000F03CBA400000F1807000EB88
:10019000C350A0F1807040EAD170490009E04908DD
:1001A00041EAC071A0EBC35000F50000400800EB2D
:1001B000C350F0BC00F01BBA6142012202EB4101C6
:1001C000001BF6E7F0BC704781F00041AAE780F021
:1001D0000040A7E780EA010210B502F000434000AA
:1001E00022D04A001FD0010E01EB1261C0F356006D
:1001F000C2F3560240F4000042F40002A0FB0220C9
:1002000000047F39140400D0401C50EA124001D48D
:100210004000491EC2B20C0604EBD010401C40083E
:10022000802A02D003E0002010BD20F00100002948
:1002300000DA0020184310BD30B480EA010202F059
:10024000004530F0004221F0004013D090B1C30DC2
:10025000D40DC2F31601C0F31600E41A41F40001F4
:1002600040F400027D34914201D3641C00E0490057
:10027000002C02DA30BC002070474FF4000000234D
:10028000914201D3891A034340084FEA4101F7D153
:1002900051B1914202D14FF0004105E002D24FF03E
:1002A000010101E06FF0010103EBC450284430BCB0
:1002B00000F09DB92DE9FE4F804681EA0300C00F92
:1002C0000C46009021F0004123F00045B8EB0200FD
:1002D000A94105D24046214690461C460B4602469F
:1002E00023F00040104347D0270DC7F30A00C3F3A3
:1002F0000A510290401A019040286BDAC3F31300B0
:1003000040F4801B0098924620B10023D2EB030AF0
:1003100063EB0B0B01985946C0F14002504600F0C8
:1003200045F906460D4650465946019A00F04DF9EA
:1003300010EB08006141002487EA115284EAE77358
:100340001A4340D0009A62B3019A012A4FEA075239
:1003500015DC001B61EB02014FF0004202EA07527C
:10036000CDE90042001C41F5801132462B4600F0D9
:1003700084F903B0BDE8F08F40462146F9E7001B41
:1003800061EB0201001C41F5801300185B4120184D
:10039000A2F5001747EB030140EAD570B6196D418D
:1003A00011E06D084FEA360645EAC0754FEA07527C
:1003B000001B61EB0201001C41F5801149084FEA66
:1003C00030000019514132462B4603B0BDE8F04FD2
:1003D00000F044B90098012240000023D0EB020253
:1003E00063EBE073009821464FEAE074B8EB00003D
:1003F00061EB0401E9E783F000435BE781F0004132
:1004000058E72DE9FE4F81EA030404F0004421F08F
:10041000004100944FF0000B23F0004350EA010428
:100420005ED052EA03045BD0C3F30A54C1F30A5509
:100430002C44A4F2F3340194A0FB0254C1F3130141
:1004400041F48011C3F3130343F4801301FB02440E
:1004500000FB034E840A970A44EA815447EA835713
:10046000A4FB076802958D0A05FB07854FEA932CCC
:1004700004FB0C542705029D4FEA065847EA16373D
:10048000B5EB08056EEB070C870E920E47EA811755
:1004900042EA8312A7FB0201B6EB0B0164EB0004F6
:1004A0002B0D43EA0C335E1844EB1C50DA465146E0
:1004B000E7FB0201C5F313044FEA0B3343EA14537D
:1004C0004FEA0432019C43EA0603A4F10C040294AF
:1004D000009CCDE900B400F0D0F803B0BDE8F08F87
:1004E00000200146F9E720F00040C10DC0F31600DE
:1004F00040F400007F2901DA00207047962903DCD0
:10050000C1F19601C840704796398840704700F0A5
:10051000004230F000400AD0C10D01F56071C0F317
:10052000160042EA0151C2084007114370470020FB
:100530000146704701F0004330B421F0004150EA19
:10054000010206D00A0DA2F56072C1F31301002A60
:1005500002DC30BC00207047440F44EAC104C100F3
:10056000E01830BC00EBC25000F041B8002801DBBD
:10057000C0F10040002901DBC1F100418842704711
:1005800030B50B46014600202022012409E021FA63
:1005900002F59D4205D303FA02F5491B04FA02F560
:1005A0002844151EA2F10102F1DC30BD202A04DB33
:1005B000203A00FA02F1002070479140C2F1200376
:1005C00020FA03F3194390407047202A06DBCB172B
:1005D000203A41FA02F043EAE07306E041FA02F3FE
:1005E000D040C2F1200291400843194670470029CB
:1005F000A8BF7047401C490008BF20F001007047A9
:1006000010B4B0FA80FC00FA0CF050EA010404BF08
:1006100010BC704749B1CCF1200421FA04F411FA5E
:100620000CF118BF012121430843A3EB0C01CB1DA2
:100630004FEA00614FEA102042BF002010BC704713
:1006400000EBC35010440029A4BF10BC7047401CED
:10065000490008BF20F0010010BC704710B5141EFF
:1006600073F1000408DA401C41F1000192185B416B
:100670001A4301D120F0010010BD2DE9F04D924642
:100680009B4611B1B1FA81F202E0B0FA80F2203259
:100690009046FFF78BFF04460F4640EA0A0041EA06
:1006A0000B0153465A46084313D0114653EA010042
:1006B00019D0C8F14002504600F040F805460E46F9
:1006C000504659464246FFF771FF084305D00120C6
:1006D00004E020463946BDE8F08D0020054346EA97
:1006E000E0762C4337430A986305E40AA0EB080040
:1006F0000022FD0A44EA47540A3002D50020014690
:10070000E9E7010510196941DDE90845001969416A
:10071000BDE8F04DA2E70000064C074D06E0E0689A
:1007200040F0010394E8070098471034AC42F6D338
:10073000FFF7E0FCEC2600080C270008202A04DB69
:10074000203A21FA02F00021704721FA02F3D0404A
:10075000C2F12002914008431946704700BFFEE7EE
:1007600070472DE9F04102460025002600200023B5
:100770000024002791F803C00CF00F0591F803C086
:100780000CF0100CBCF1000F03D091F802C04CEA41
:10079000050591F800C0BCF1000F31D014680020AD
:1007A0002BE04FF0010C0CFA00F3B1F800C00CEA9A
:1007B00003069E4220D183004FF00F0C0CFA03F782
:1007C000BC4305FA03FC4CEA040491F803C0BCF1F5
:1007D000280F06D14FF0010C0CFA00FCC2F814C02F
:1007E0000AE091F803C0BCF1480F05D14FF0010CAD
:1007F0000CFA00FCC2F810C0401C0828D1D31460C9
:10080000B1F800C0BCF1FF0F34DD546800202EE0C9
:1008100000F1080C4FF0010808FA0CF3B1F800C021
:100820000CEA03069E4221D183004FF00F0C0CFA14
:1008300003F7BC4305FA03FC4CEA040491F803C037
:10084000BCF1280F05D100F1080C08FA0CF8C2F829
:10085000148091F803C0BCF1480F07D100F1080CD7
:100860004FF0010808FA0CF8C2F81080401C082864
:10087000CED35460BDE8F081F0B50A4600230024D1
:100880000021002500F00046B6F1004F02D11D4EB8
:10089000F16901E01B4E7168C0F3034583B200F4B7
:1008A0004016B6F5401F08D121F07061154E7668EC
:1008B00026F07066134F7E6012E000F48016B6F5E5
:1008C000801F06D1032606FA05F4A14341F07061AA
:1008D00006E0460D360103FA06F6B14341F07061B9
:1008E00022B1460D360103FA06F6314300F0004608
:1008F000B6F1004F02D1034EF16101E0014E71608B
:10090000F0BD000000000140416170470161704787
:1009100008B50121082000F06DF84FF48060ADF8B3
:10092000000010208DF8030003208DF802006946B6
:100930000448FFF716FF4FF480610248FFF7E4FF19
:1009400008BD0000000C014000BFFEE7704700003A
:1009500070B5002100230F22C47804B3154C24681D
:1009600004F4E064C4F5E064210AC1F10403CA4060
:10097000447804FA03F184781440214309010E4CB1
:100980000678A155047804F01F050124AC400578D1
:100990006D11AD0005F1E025C5F8004109E00478CE
:1009A00004F01F050124AC40044D0678761145F88B
:1009B000264070BD0CED00E000E400E080E100E0C6
:1009C00002490143024A1160704700000000FA0525
:1009D0000CED00E029B1064AD2690243044BDA610A
:1009E00004E0034AD2698243014BDA617047000098
:1009F0000010024029B1064A92690243044B9A61F1
:100A000004E0034A92698243014B9A6170470000F7
:100A10000010024030B500210022002400232D4D9B
:100A20006D6805F00C0121B1042905D0082923D1F6
:100A300005E0294D056022E0274D05601FE0254DAA
:100A40006D6805F47012234D6D6805F4803402253D
:100A500005EB92421CB9214D554305600BE01D4D3D
:100A60006D6805F400351DB11C4D5543056002E06D
:100A7000194D5543056002E0174D056000BF00BFEA
:100A8000144D6D6805F0F0010909154D6B5C0568A2
:100A9000DD4045600F4D6D6805F4E061090A104DB9
:100AA0006B5C4568DD4085600A4D6D6805F46051FA
:100AB000C90A0B4D6B5C4568DD40C560054D6D682E
:100AC00005F44041890B074D6B5CC568B5FBF3F538
:100AD000056130BD0010024000127A0000093D009F
:100AE0005000002060000020704710B500F002F8B0
:100AF00010BD00000CB50020019000903348006844
:100B000040F480303149086000BF3048006800F48C
:100B1000003000900198401C0190009818B901988D
:100B2000B0F5A06FF1D12948006800F4003010B191
:100B30000120009001E0002000900098012843D19E
:100B40002348006840F0100021490860084600680A
:100B500020F0030008600846006840F002000860CA
:100B60001A48406819494860084640684860084685
:100B7000406840F4806048600846406820F47C107B
:100B800048600846406840F4E8104860084600683D
:100B900040F08070086000BF0C48006800F00070F2
:100BA0000028F9D00948406820F003000749486050
:100BB0000846406840F00200486000BF03484068B3
:100BC00000F00C000828F9D10CBD00000010024014
:100BD00000200240042808D14FF0E021096941F0CB
:100BE00004014FF0E022116107E04FF0E0210969B4
:100BF00021F004014FF0E0221161704710B5134855
:100C0000006840F00100114908600846406810493A
:100C100008400E494860084600680E4908400B49E4
:100C200008600846006820F4802008600846406894
:100C300020F4FE0048604FF41F008860FFF755FF66
:100C40004FF000600449086010BD00000010024031
:100C50000000FFF8FFFFF6FE08ED00E0F0B50C46DF
:100C6000154600220021068C4FF6FE773E40068492
:100C7000028B018C4FF60C7632407E1C06EA03167E
:100C80002E433243104EB0420ED0104EB0420BD025
:100C9000B0F1804F08D00E4EB04205D00D4EB0429C
:100CA00002D00D4EB04206D14FF6FD76314044F0F1
:100CB0000106314305E04FF6F576314044F0010678
:100CC000314302830184F0BD002C01400034014017
:100CD0000004004000080040000C0040F0B50C4645
:100CE0001546002200210026078C4FF6EF7C07EA0C
:100CF0000C070784028B018C4FF6FF7707EA041676
:100D000040F6FF473A404FF6FF7707EA03373A438A
:100D10004FF6FF7707EA05273A43114FB8420ED046
:100D2000104FB8420BD0B0F1804F08D00E4FB842F0
:100D300005D00E4FB84202D00D4FB84206D14FF643
:100D4000DF77394046F01007394305E04FF65F770B
:100D5000394044F01007394302830184F0BD00009C
:100D6000002C014000340140000400400008004015
:100D7000000C0040F0B50C4615460022002100266C
:100D8000078C4FF6FF6C07EA0C070784828B018CF7
:100D90004FF6FF7707EA04264FF60C773A404FF6F6
:100DA000FF7707EA03172F433A43114FB8420ED09B
:100DB000104FB8420BD0B0F1804F08D00E4FB84260
:100DC00005D00E4FB84202D00D4FB84206D14FF6B3
:100DD000FF57394046F48077394305E04FF2FF571B
:100DE000394044F48077394382830184F0BD0000A8
:100DF000002C014000340140000400400008004085
:100E0000000C0040F0B50C461546002200210026DB
:100E1000078C4EF6FF7C07EA0C070784828B018C57
:100E20004FF6FF7707EA043640F6FF473A404FF6A1
:100E3000FF7707EA05273A434FF6FF7707EA0337BC
:100E40003A43114FB8420ED0104FB8420BD0B0F118
:100E5000804F08D00E4FB84205D00E4FB84202D096
:100E60000D4FB84206D14DF6FF77394046F4805712
:100E7000394305E047F6FF57394044F4805739437A
:100E800082830184F0BD0000002C01400034014049
:100E90000004004000080040000C004010B5A948C4
:100EA000007800F08000002844D10121A64800F01D
:100EB00043FAD0B1A348007800F04000A8B1A1489F
:100EC000007800F03F003F280AD19E48007840F0AB
:100ED00080009C4908704FF6FF709C49088004E030
:100EE00098480078401C974908700221964800F005
:100EF00023FAF8B19348007800F0400058B19148C7
:100F0000007840F080008F4908708F4800F007FAA1
:100F10008E4908800EE000208A4908708B490880BD
:100F20000021894800F0DEFB8648007840F0400050
:100F3000844908708648007800F08000002844D179
:100F40000121814800F0F8F9D0B18148007800F023
:100F50004000A8B17E48007800F03F003F280AD149
:100F60007B48007840F08000794908704FF6FF70A8
:100F70007849088004E076480078401C744908707D
:100F80000421714800F0D8F9F8B17148007800F0F8
:100F9000400058B16E48007840F080006C490870FD
:100FA000694800F0BFF96B4908800EE000206849ED
:100FB0000870684908800021634800F093FB64488A
:100FC000007840F04000624908706348007800F003
:100FD0008000A0BB01215C4800F0AEF9D0B15E48B2
:100FE000007800F04000A8B15B48007800F03F00B6
:100FF0003F280AD15848007840F0800056490870D0
:101000004FF6FF705549088004E053480078401CB3
:101010005149087008214C4800F08EF978B14E48CB
:10102000007800F0400058B14B48007840F0800054
:1010300049490870444800F078F9484908800EE0B2
:101040000020454908704549088000213E4800F0CD
:1010500049FB4148007840F040003F490870404853
:10106000007800F08000A0BB0121374800F064F94F
:10107000D0B13B48007800F04000A8B13848007873
:1010800000F03F003F280AD13548007840F080004A
:10109000334908704FF6FF703249088004E0304849
:1010A0000078401C2E4908701021274800F044F9B0
:1010B00078B12B48007800F0400058B128480078FB
:1010C00040F08000264908701F4800F031F925499A
:1010D00008800EE000202249087022490880002183
:1010E000194800F0FFFA1E48007840F040001C4903
:1010F00008701D48006818B90121134800F000F974
:1011000019480068012803D103210F4800F0F8F8BE
:1011100015480068022803D105210B4800F0F0F8BB
:1011200011480068032803D10921074800F0E8F8B6
:101130000D480068042803D11121034800F0E0F8AD
:1011400010BD0000400000200004004042000020CC
:101150004400002046000020480000204A000020F3
:101160004C0000204E0000203C00002030B587B02D
:1011700004460D4601210220FFF72CFC00F0B0FDD3
:10118000ADF81440ADF810500020ADF81600ADF8E1
:10119000120004A9344800F0D3FA0020ADF804008E
:1011A0000220ADF806000120ADF808000020ADF8DF
:1011B0000A00ADF80C002D480199016002994160C8
:1011C000BDF80C1001810420ADF8040027480A3056
:1011D0000199016002994160BDF80C10018108205D
:1011E000ADF8040021480199416102998161BDF87F
:1011F0000C1081830C20ADF804001C481E300199AE
:10120000016002994160BDF80C1001811749164830
:1012100000F0A4F815490A31134800F09FF813496B
:101220001431114800F09AF810491E310E4800F0B0
:1012300095F81D208DF8000002208DF80100002097
:101240008DF8020001208DF803006846FFF780FB4F
:1012500001221146044800F0D7F80121024800F0AD
:1012600052F807B030BD0000000400409400002098
:1012700030B587B005460C4601210420FFF7AAFBD4
:1012800000F0DEFDADF81450ADF810400020ADF8D0
:101290001600ADF8120004A9184800F051FA6020B9
:1012A000ADF800000120ADF802000020ADF8080004
:1012B0006946124800F0B2F86946104800F004F997
:1012C00069460E4800F060F969460C4800F0B6F92E
:1012D00008210A4800F0EEF80821084800F046F915
:1012E0000821064800F0A0F90821044800F0E4F9BC
:1012F0000121024800F007F807B030BD00080040A7
:10130000CA430282704721B1028842F00102028082
:1013100004E002884FF6FE731A40028070470146CF
:10132000888E70470146088F70470146888F704746
:101330000146B1F84000704730B502460020002356
:101340000024158A05EA0103958905EA010413B111
:101350000CB1012000E0002030BD000070B5054652
:101360000C46244885420ED0234885420BD0B5F167
:10137000804F08D02148854205D02148854202D0BF
:101380002048854200D100E000BF208850B9238961
:10139000A28861882846FFF761FCE188284600F0B2
:1013A000A3F925E0208804280AD12389A28861882E
:1013B0002846FFF793FCE188284600F09EF917E0E5
:1013C000208808280AD12389A28861882846FFF747
:1013D000D1FCE188284600F09DF909E02389A28824
:1013E00061882846FFF70EFDE188284600F09BF94A
:1013F00070BD0000002C014000340140000400409A
:1014000000080040000C00401AB183890B4383811F
:1014100002E083898B4383817047000070B500240C
:1014200000220023058C4FF6FE7635400584028CA1
:101430008388048B4FF68F752C40B51E2C400D8889
:101440002C43751E2A400D892A434D882A43144D8A
:10145000A8420BD0134DA84208D0134DA84205D086
:10146000124DA84202D0124DA84213D14FF6F77583
:101470002A404D892A434FF6FB752A408D882A431E
:101480004FF6FF652B404FF6FF552B408D892B43C0
:10149000CD892B4383800483CD888586028470BDEB
:1014A000002C014000340140004001400044014054
:1014B000004801400A460021018B4FF6F77319409E
:1014C000114301837047000070B5002400220023FF
:1014D000058C4FF6EF7635400584028C8388048BAB
:1014E00048F6FF752C404FF6FF452C400D884FF60F
:1014F000FF7606EA05252C434FF6DF752A400D8955
:1015000006EA05152A434D8806EA05152A43154DB6
:10151000A84202D0144DA8421DD14FF67F752A4033
:101520004D894FF6FF7606EA05152A434FF6BF753B
:101530002A408D8806EA05152A434FF6FF352B40D1
:101540004FF2FF752B408D8906EA85052B43CD8927
:1015500006EA85052B4383800483CD8805870284B2
:1015600070BD0000002C0140003401400A460021FB
:10157000018B4FF2FF7319404FF6FF7303EA02230A
:10158000194301837047000070B500240022002336
:10159000058C4FF6FF6635400584028C8388848B6A
:1015A0004FF68F752C404FF6FC752C400D882C4360
:1015B0004FF6FF552A400D894FF6FF7606EA0525BE
:1015C0002A434D8806EA05252A43154DA84202D034
:1015D000144DA8421DD14FF2FF752A404D894FF698
:1015E000FF7606EA05252A434FF6FF352A408D8807
:1015F00006EA05252A434EF6FF752B404DF6FF758A
:101600002B408D8906EA05152B43CD8906EA051581
:101610002B4383808483CD888587028470BD00003E
:10162000002C0140003401400A460021818B4FF616
:10163000F7731940114381837047000070B5002291
:1016400000230024058C4EF6FF7635400584038C7C
:101650008488828B48F6FF752A404FF6FF452A4062
:101660000D884FF6FF7606EA05252A434DF6FF75ED
:101670002B400D8906EA05352B434D8806EA0535D2
:101680002B430B4DA84202D00A4DA84208D14BF67D
:10169000FF752C408D894FF6FF7606EA85152C43A1
:1016A00084808283CD88A0F84050038470BD000000
:1016B000002C0140003401400A460021818B4FF28A
:1016C000FF7319404FF6FF7303EA02231943818326
:1016D0007047818670470187704781877047A0F8FF
:1016E0004010704781847047028B4FF6F3731A40A5
:1016F0000283028B0A4302837047028B4FF2FF334F
:101700001A400283028B4FF6FF7303EA01231A4348
:1017100002837047828B4FF6F3731A408283828B69
:101720000A4382837047828B4FF2FF331A408283D1
:10173000828B4FF6FF7303EA01231A4382837047BB
:10174000002202881D4B98420ED01D4B98420BD0B0
:10175000B0F1804F08D01B4B984205D01A4B9842ED
:1017600002D01A4B984204D14FF68F731A404B881F
:101770001A43174B984207D0164B984204D04FF6A5
:10178000FF431A40CB881A4302808B8883850B88DD
:1017900003850A4B98420BD0094B984208D00E4B58
:1017A000984205D00D4B984202D00D4B984201D182
:1017B0000B7A03860123838270470000002C0140CE
:1017C000003401400004004000080040000C0040CC
:1017D000001000400014004000400140004401405F
:1017E0000048014010B540F22551224800F0A2F80F
:1017F00000283ED01F4800F059F9C4B21E480088A6
:1018000000F4004018BB1C48008800F48040B0B1D0
:10181000442C03D00020184908802AE0164800888C
:10182000C0F30D00082803D000201349088020E0F1
:101830001148008840F400400F49088019E0452C09
:1018400006D10D48008840F480400B49088010E024
:1018500009480088C0F30D0008490C540648008868
:10186000401C0549088008460088082801DD002042
:10187000088010BD003801403800002028000020FA
:1018800010B540F22551224800F054F800283ED00F
:101890001F4800F00BF9C4B21E48008800F4004055
:1018A00018BB1C48008800F48040B0B10A2C03D05B
:1018B0000020184908802AE016480088C0F30D006F
:1018C000072803D000201349088020E01148008831
:1018D00040F400400F49088019E00D2C06D10D4856
:1018E000008840F480400B49088010E009480088D7
:1018F000C0F30D0008490C5406480088401C0549F7
:10190000088008460088072801DD0020088010BDF7
:10191000004400403A0000203000002021B18289BC
:1019200042F40052828104E082894DF6FF731A402E
:101930008281704770B502460024002300250020F4
:1019400040F66A16B14200D100BFC1F3421501F062
:101950001F03012606FA03F3012D02D196893340B5
:1019600006E0022D02D1168A334001E0968A334008
:101970000C12012606FA04F41688344013B10CB197
:10198000012000E0002070BDF0B5034600240026D1
:101990000025002040F66A17B94200D100BF184662
:1019A000C1F3421401F01F06012707FA06F5012CC6
:1019B00001D10C3004E0022C01D1103000E01430D1
:1019C0001AB107682F43076002E00768AF4307605A
:1019D000F0BD00002DE9F04786B005460E46002414
:1019E000A24600BFA1460027B08900B100BF2F4624
:1019F0002C8A4CF6FF700440F08804432C82AC899A
:101A00004EF6F3100440B0883189084371890843C9
:101A10000443AC81AC8A4FF6FF400440B0890443D4
:101A2000AC8201A8FEF7F6FF1F48874202D1DDF81D
:101A300010A001E0DDF80CA0A88900F4004040B13E
:101A40000AEBCA0000EB0A1031684900B0FBF1F85C
:101A500007E00AEBCA0000EB0A1031688900B0FB0E
:101A6000F1F86420B8FBF0F004012009642101FBC7
:101A70001089A88900F4004040B1322000EBC90071
:101A8000B0FBF1F000F00700044308E0322000EB67
:101A900009106421B0FBF1F000F00F0004432C8129
:101AA00006B0BDE8F0870000003801400146888894
:101AB000C0F30800704700BFFEE700000FB4054BFD
:101AC00010B503A9044A029800F018F810BC5DF89C
:101AD00014FB0000511D00082400002002E008C88B
:101AE000121F08C1002AFAD170477047002001E098
:101AF00001C1121F002AFBD1704700002DE9FF4FE2
:101B000089B09B460446002506E025280BD05A469E
:101B10000B999047641C6D1C20780028F5D10DB0FE
:101B20002846BDE8F08F0027B8460122474900E06B
:101B3000074314F8013F203B02FA03F00842F7D1B3
:101B400020782E2819D114F8010F47F004072A280D
:101B50000ED06FF02F022078A0F1300109290CD8A7
:101B600008EB880102EB410100EB0108641CF2E77D
:101B70000A98641C50F8048B0A9020780028CED074
:101B8000642808D0692806D075281ED05A460B99BB
:101B900090476D1C58E00A994FF00A0901C90A9153
:101BA000002802DA40422D2102E0390504D52B211C
:101BB0008DF82010012103E0F90704D02021F7E778
:101BC0008A4608AE0DE00021FAE70A994FF00A09AB
:101BD00001C90A91F7E74946FEF7D2FC303106F811
:101BE000011D0028F7D1ADEB060000F120097807B0
:101BF00001D44FF00108C84502DDA8EB090000E060
:101C000000208046002706E008A85A46C05D0B99D0
:101C100090476D1C7F1C5745F6DB04E030205A4688
:101C20000B9990476D1CB8F10001A8F10108F5DC93
:101C300005E016F8010B5A460B9990476D1CB9F157
:101C40000001A9F10109F4DC641C65E70928010021
:101C500010B56FF00400FEF7BDFF0A4800680A499E
:101C6000B0FBF1F0094908700846007800EB40012C
:101C7000C1EBC0104FF6FF7101EAC00004490880B3
:101C800010BD00006400002000127A002000002037
:101C9000220000200146114A12784A434FF0E02307
:101CA0005A6100229A611A46126942F001021A61D1
:101CB00000BF4FF0E022106900F001021AB100F4F9
:101CC0008032002AF5D04FF0E022126922F00102A2
:101CD0004FF0E0231A6100229A6170472000002033
:101CE00010B501210C20FEF785FE40201549088023
:101CF00080208880012008810220888100200AE05D
:101D00000421104A02EB8002D17003210D4A02EB3C
:101D100080029170401C0428F2DB0A490A48FEF751
:101D200020FD0849091D0848FEF71BFD054908313B
:101D30000648FEF716FD03490C310448FEF711FD75
:101D400010BD00001C010020000C014000080140F3
:101D500000BF054A128802F04002002AF9D0C2B240
:101D6000014B1B1D1A80704700440040FFF770FFB5
:101D70004FF4A060FEF724FEFEF7CAFD4FF4E130F9
:101D800000F062FC00F04EF8012016490860164889
:101D900016490860164848601648886000F0D4FB71
:101DA00000F0FEF864211448FFF793FC6421124808
:101DB000FFF791FC64211048FFF78FFC64210E4867
:101DC000FFF78DFC0CE0012402220021204600F0E8
:101DD00071F905462A46214608A0FFF76FFE00BFAD
:101DE000F1E70000A881214200004842880000205D
:101DF0000000FA430000A0400008004072706D250A
:101E0000643A2564200D0A0010B520210448FEF72D
:101E10007DFD4FF400510248FEF778FD10BD000033
:101E2000000C014010B547214FF6FF70FFF79EF9F7
:101E300041F61F416420FFF71BFAFFF7E5FF10BDD5
:101E400038B501210D20FEF7D5FD01215048FEF7E0
:101E500013FD40204F49888180214E4881844900EC
:101E600081874900A0F85410082101828901018569
:101E70008901A0F84010C910A0F8581010218182E3
:101E8000890181850901A0F84410C910A0F85C10EF
:101E900000212DE0002028E098B9182301EB410231
:101EA0003C4C04EBC2020C3202EB8002D3700323E1
:101EB00001EB410204EBC2020C3202EB8002937090
:101EC00012E0102301EB4102324C04EBC2020C324F
:101ED00002EB8002D370032301EB410204EBC20248
:101EE0000C3202EB80029370401C0328D4DB491CA7
:101EF0000429CFDB2848274908604860886088614A
:101F000026492448C16101622348224908630146E9
:101F100020484163816308461E49886401461D4884
:101F2000C1640165002415E0002510E004EB4402C3
:101F3000184B03EBC2020C3202EB850104EB4402A6
:101F400003EBC20252F82500FEF70BFC6D1C032DBB
:101F5000ECDB641C042CE7DB2020ADF80000102033
:101F60008DF8030003208DF8020069460A48FEF749
:101F7000F8FB4FF40050ADF8000010208DF803007E
:101F800003208DF8020069460348FEF7EAFB38BDDE
:101F900000023000BC000020000C0140000801409D
:101FA00070B5404908680021FEF7E0FA04D201212B
:101FB000002000F06FFA03E00021084600F06AFA02
:101FC000384948680021FEF7D1FA04D201210846B9
:101FD00000F060FA03E00021012000F05BFA3149D3
:101FE00088680021FEF7C2FA04D20121022000F025
:101FF00051FA03E00021022000F04CFA2949C86898
:102000000021FEF7B3FA04D20121032000F042FAC6
:1020100003E00021032000F03DFA22480168224835
:10202000FEF7D8F806462149FEF706F90546FEF701
:102030005AFA84B221461E48FFF74BFB1948416803
:102040001948FEF7C7F806461849FEF7F5F80546A1
:10205000FEF749FA84B221461548FFF73CFB1148C8
:1020600081681148FEF7B6F806461049FEF7E4F815
:102070000546FEF738FA84B221460D48FFF72DFBDE
:102080000848C1680848FEF7A5F806460749FEF764
:10209000D3F80546FEF727FA84B221460448FFF735
:1020A0001EFB70BD780000200000C84200008C427A
:1020B000000800402DE9F04781460C461646B9F16C
:1020C000010F09D0B9F1020F76D0B9F1030F71D029
:1020D000B9F1040F6FD147E101220221DA48FFF77D
:1020E00093F90120D949086000274EE0C4B900BF28
:1020F000D748007800F080000028F9D0D448007854
:1021000000F03F00D34908600846008800040860DA
:1021100008460068D04909880844CE49086028E08C
:102120004FF000081BE0CA48007800F0800088B13A
:10213000C748007800F03F00C6490860084600889C
:102140000004086008460068C34909880844C1497A
:10215000086006E00120FFF79DFD08F10108A04599
:10216000E1DB00BFA04503DD4FF0FF30BDE8F087A5
:1021700000BFB848006841F28831884203D3B548AF
:102180000068054400E07F1E7F1CB742AEDB95FB74
:10219000F6F5680000EBC000B04991FBF0F0B049E3
:1021A000086000220221A848FFF72EF9AC48006819
:1021B000DCE701E06CE043E101220421A248FFF7E3
:1021C00023F90220A149086000274DE0C4B900BFEF
:1021D000A448007800F080000028F9D0A1480078D9
:1021E00000F03F00A049086008460088000408602D
:1021F000084600689D49098808449B49086027E013
:102200004FF000081BE09748007800F0800088B18C
:102210009448007800F03F00934908600846008821
:1022200000040860084600689049098808448E49FF
:10223000086006E00120FFF72DFD08F10108A04528
:10224000E1DB00BFA04502DD4FF0FF308EE700BFAD
:102250008548006841F28831884203D3824800688B
:10226000054400E07F1E7F1CB742AFDB95FBF6F50F
:10227000680000EBC000794991FBF0F07C490860F0
:10228000002204217048FFF7BFF8794800686DE725
:10229000012208216C48FFF7B7F803206B4908605A
:1022A00000274DE0C4B900BF7248007800F08000FC
:1022B0000028F9D06F48007800F03F006E490860B0
:1022C0000846008800040860084600686B490988D1
:1022D00008446949086027E04FF000081BE06548A2
:1022E000007800F0800088B16248007800F03F007C
:1022F00061490860084600880004086008460068D4
:102300005E49098808445C49086006E00120FFF73F
:10231000C1FC08F10108A045E1DB00BFA04502DDDA
:102320004FF0FF3022E700BF5348006841F2883188
:10233000884203D350480068054400E07F1E7F1C9C
:10234000B742AFDB95FBF6F5680000EBC0004349F0
:1023500091FBF0F04A490860002208213A48FFF753
:1023600053F84748006801E7012210213648FFF77B
:102370004BF804203549086000274DE0C4B900BF80
:102380004048007800F080000028F9D03D480078EF
:1023900000F03F003C4908600846008800040860DF
:1023A000084600683949098808443749086027E029
:1023B0004FF000081BE03348007800F0800088B13F
:1023C0003048007800F03F002F4908600846008838
:1023D00000040860084600682C49098808442A4916
:1023E000086006E00120FFF755FC08F10108A04550
:1023F000E1DB00BFA04502DD4FF0FF30B6E600BFD5
:102400002148006841F28831884203D31E480068A1
:10241000054400E07F1E7F1CB742AFDB95FBF6F55D
:10242000680000EBC0000D4991FBF0F0184908600E
:10243000002210210448FEF7E7FF1548006895E6E2
:1024400000BF00BF002091E6000400403C000020D7
:10245000400000200000002042000020808D5B0032
:10246000100000204400002004000020460000204E
:102470001400002048000020080000204A0000202E
:10248000180000204C0000200C0000204E0000200E
:102490001C00002070B504460D46012D1AD104EB36
:1024A0004402284B03EBC202118A04EB440203EB03
:1024B000C2025068FEF728FA04EB4402214B03EBFA
:1024C000C202918A04EB440203EBC2029068FEF759
:1024D0001DFA35E0D5B904EB44021A4B03EBC202F6
:1024E000118A04EB440203EBC2025068FEF70EFAB5
:1024F00004EB4402134B03EBC202918A04EB440247
:1025000003EBC2029068FEF7FFF919E004EB440206
:102510000C4B03EBC202118A04EB440203EBC20230
:102520005068FEF7F1F904EB4402064B03EBC202DC
:10253000918A04EB440203EBC2029068FEF7E4F9CF
:1025400070BD0000BC0000202DE9F05F3A498868AA
:10255000FDF7DDFF8046394A394BFDF752FF06464D
:102560000F46354A51681068FDF72EFE8046FDF78C
:10257000CEFF824632463B46FDF73DFF0446FDF75F
:10258000D9FF304908602C498868FDF7C0FF8046B4
:102590002A4A2B4BFDF735FF04460D46264A516863
:1025A0001068FDF7BFFD8046FDF7B1FF06462246E5
:1025B0002B46FDF77FFE8246FDF7BCFF21494860B0
:1025C0001D498868FDF7A3FF82461C4A1C4BFDF796
:1025D00018FF80468946184A51681068FDF7F4FDD7
:1025E0008246FDF794FF064642464B46FDF762FEE3
:1025F0000446FDF79FFF134988600F498868FDF77F
:1026000086FF06460D4A0E4BFDF7FBFE04460D46BF
:10261000094A51681068FDF785FD0646FDF777FF0A
:10262000804622462B46FDF7E6FE8246FDF782FFF6
:102630000449C860BDE8F09F8800002057EC2FBB1C
:10264000270FC33F7800002010B586B00446012153
:102650000420FEF7CFF901214804FEF7BBF904205E
:10266000ADF8140003208DF8160018208DF817001F
:1026700005A91C48FEF775F80820ADF814000420E1
:102680008DF8170005A91748FEF76BF826208DF87E
:10269000000003208DF801008DF8020001208DF864
:1026A00003006846FEF754F901940020ADF80800D5
:1026B000ADF80A00ADF80C00ADF810000C20ADF834
:1026C0000E0001A90848FFF785F9012240F22551C3
:1026D0000548FFF759F901210348FFF71FF906B034
:1026E00010BD000000080140004400400C27000815
:1026F0000000002078000000DC1A00088427000891
:1027000078000020B8040000EC1A00080000000067
:1027100000000000000000000000000000000000B9
:1027200000000000000000000000000000000000A9
:102730000000000000000000000000000000000099
:102740000000000000000000000000000000000089
:102750000000000000000000000000000000000079
:102760000102030401020304060708090204060823
:1027700000A24A040000000000000000010203045F
:042780000607080937
:04000005080000ED02
:00000001FF
